{
  "_format": "hh-sol-artifact-1",
  "contractName": "CandyMachine",
  "sourceName": "contracts/CandyMachine.sol",
  "abi": [
    {
      "inputs": [
        {
          "internalType": "string",
          "name": "collectionName",
          "type": "string"
        },
        {
          "internalType": "string",
          "name": "collectionSymbol",
          "type": "string"
        }
      ],
      "stateMutability": "nonpayable",
      "type": "constructor"
    },
    {
      "anonymous": false,
      "inputs": [
        {
          "indexed": true,
          "internalType": "address",
          "name": "owner",
          "type": "address"
        },
        {
          "indexed": true,
          "internalType": "address",
          "name": "approved",
          "type": "address"
        },
        {
          "indexed": true,
          "internalType": "uint256",
          "name": "tokenId",
          "type": "uint256"
        }
      ],
      "name": "Approval",
      "type": "event"
    },
    {
      "anonymous": false,
      "inputs": [
        {
          "indexed": true,
          "internalType": "address",
          "name": "owner",
          "type": "address"
        },
        {
          "indexed": true,
          "internalType": "address",
          "name": "operator",
          "type": "address"
        },
        {
          "indexed": false,
          "internalType": "bool",
          "name": "approved",
          "type": "bool"
        }
      ],
      "name": "ApprovalForAll",
      "type": "event"
    },
    {
      "anonymous": false,
      "inputs": [
        {
          "indexed": true,
          "internalType": "address",
          "name": "previousOwner",
          "type": "address"
        },
        {
          "indexed": true,
          "internalType": "address",
          "name": "newOwner",
          "type": "address"
        }
      ],
      "name": "OwnershipTransferred",
      "type": "event"
    },
    {
      "anonymous": false,
      "inputs": [
        {
          "indexed": true,
          "internalType": "address",
          "name": "from",
          "type": "address"
        },
        {
          "indexed": true,
          "internalType": "address",
          "name": "to",
          "type": "address"
        },
        {
          "indexed": true,
          "internalType": "uint256",
          "name": "tokenId",
          "type": "uint256"
        }
      ],
      "name": "Transfer",
      "type": "event"
    },
    {
      "inputs": [
        {
          "internalType": "string",
          "name": "tokenUri",
          "type": "string"
        }
      ],
      "name": "addConfigLine",
      "outputs": [],
      "stateMutability": "nonpayable",
      "type": "function"
    },
    {
      "inputs": [
        {
          "internalType": "address",
          "name": "to",
          "type": "address"
        },
        {
          "internalType": "uint256",
          "name": "tokenId",
          "type": "uint256"
        }
      ],
      "name": "approve",
      "outputs": [],
      "stateMutability": "nonpayable",
      "type": "function"
    },
    {
      "inputs": [
        {
          "internalType": "address",
          "name": "owner",
          "type": "address"
        }
      ],
      "name": "balanceOf",
      "outputs": [
        {
          "internalType": "uint256",
          "name": "",
          "type": "uint256"
        }
      ],
      "stateMutability": "view",
      "type": "function"
    },
    {
      "inputs": [
        {
          "internalType": "uint256",
          "name": "",
          "type": "uint256"
        }
      ],
      "name": "configLines",
      "outputs": [
        {
          "internalType": "string",
          "name": "",
          "type": "string"
        }
      ],
      "stateMutability": "view",
      "type": "function"
    },
    {
      "inputs": [],
      "name": "fetchConfigLines",
      "outputs": [
        {
          "internalType": "string[]",
          "name": "",
          "type": "string[]"
        }
      ],
      "stateMutability": "view",
      "type": "function"
    },
    {
      "inputs": [
        {
          "internalType": "uint256",
          "name": "tokenId",
          "type": "uint256"
        }
      ],
      "name": "getApproved",
      "outputs": [
        {
          "internalType": "address",
          "name": "",
          "type": "address"
        }
      ],
      "stateMutability": "view",
      "type": "function"
    },
    {
      "inputs": [
        {
          "internalType": "address",
          "name": "owner",
          "type": "address"
        },
        {
          "internalType": "address",
          "name": "operator",
          "type": "address"
        }
      ],
      "name": "isApprovedForAll",
      "outputs": [
        {
          "internalType": "bool",
          "name": "",
          "type": "bool"
        }
      ],
      "stateMutability": "view",
      "type": "function"
    },
    {
      "inputs": [
        {
          "internalType": "address",
          "name": "recipient",
          "type": "address"
        }
      ],
      "name": "mintNFT",
      "outputs": [
        {
          "internalType": "uint256",
          "name": "",
          "type": "uint256"
        }
      ],
      "stateMutability": "nonpayable",
      "type": "function"
    },
    {
      "inputs": [],
      "name": "mintedTokensAmount",
      "outputs": [
        {
          "internalType": "uint256",
          "name": "",
          "type": "uint256"
        }
      ],
      "stateMutability": "view",
      "type": "function"
    },
    {
      "inputs": [],
      "name": "name",
      "outputs": [
        {
          "internalType": "string",
          "name": "",
          "type": "string"
        }
      ],
      "stateMutability": "view",
      "type": "function"
    },
    {
      "inputs": [],
      "name": "owner",
      "outputs": [
        {
          "internalType": "address",
          "name": "",
          "type": "address"
        }
      ],
      "stateMutability": "view",
      "type": "function"
    },
    {
      "inputs": [
        {
          "internalType": "uint256",
          "name": "tokenId",
          "type": "uint256"
        }
      ],
      "name": "ownerOf",
      "outputs": [
        {
          "internalType": "address",
          "name": "",
          "type": "address"
        }
      ],
      "stateMutability": "view",
      "type": "function"
    },
    {
      "inputs": [],
      "name": "renounceOwnership",
      "outputs": [],
      "stateMutability": "nonpayable",
      "type": "function"
    },
    {
      "inputs": [
        {
          "internalType": "address",
          "name": "from",
          "type": "address"
        },
        {
          "internalType": "address",
          "name": "to",
          "type": "address"
        },
        {
          "internalType": "uint256",
          "name": "tokenId",
          "type": "uint256"
        }
      ],
      "name": "safeTransferFrom",
      "outputs": [],
      "stateMutability": "nonpayable",
      "type": "function"
    },
    {
      "inputs": [
        {
          "internalType": "address",
          "name": "from",
          "type": "address"
        },
        {
          "internalType": "address",
          "name": "to",
          "type": "address"
        },
        {
          "internalType": "uint256",
          "name": "tokenId",
          "type": "uint256"
        },
        {
          "internalType": "bytes",
          "name": "data",
          "type": "bytes"
        }
      ],
      "name": "safeTransferFrom",
      "outputs": [],
      "stateMutability": "nonpayable",
      "type": "function"
    },
    {
      "inputs": [
        {
          "internalType": "address",
          "name": "operator",
          "type": "address"
        },
        {
          "internalType": "bool",
          "name": "approved",
          "type": "bool"
        }
      ],
      "name": "setApprovalForAll",
      "outputs": [],
      "stateMutability": "nonpayable",
      "type": "function"
    },
    {
      "inputs": [
        {
          "internalType": "bytes4",
          "name": "interfaceId",
          "type": "bytes4"
        }
      ],
      "name": "supportsInterface",
      "outputs": [
        {
          "internalType": "bool",
          "name": "",
          "type": "bool"
        }
      ],
      "stateMutability": "view",
      "type": "function"
    },
    {
      "inputs": [],
      "name": "symbol",
      "outputs": [
        {
          "internalType": "string",
          "name": "",
          "type": "string"
        }
      ],
      "stateMutability": "view",
      "type": "function"
    },
    {
      "inputs": [
        {
          "internalType": "uint256",
          "name": "tokenId",
          "type": "uint256"
        }
      ],
      "name": "tokenURI",
      "outputs": [
        {
          "internalType": "string",
          "name": "",
          "type": "string"
        }
      ],
      "stateMutability": "view",
      "type": "function"
    },
    {
      "inputs": [],
      "name": "tokensRemainingAmount",
      "outputs": [
        {
          "internalType": "uint256",
          "name": "",
          "type": "uint256"
        }
      ],
      "stateMutability": "view",
      "type": "function"
    },
    {
      "inputs": [],
      "name": "totalSupply",
      "outputs": [
        {
          "internalType": "uint256",
          "name": "",
          "type": "uint256"
        }
      ],
      "stateMutability": "view",
      "type": "function"
    },
    {
      "inputs": [
        {
          "internalType": "address",
          "name": "from",
          "type": "address"
        },
        {
          "internalType": "address",
          "name": "to",
          "type": "address"
        },
        {
          "internalType": "uint256",
          "name": "tokenId",
          "type": "uint256"
        }
      ],
      "name": "transferFrom",
      "outputs": [],
      "stateMutability": "nonpayable",
      "type": "function"
    },
    {
      "inputs": [
        {
          "internalType": "address",
          "name": "newOwner",
          "type": "address"
        }
      ],
      "name": "transferOwnership",
      "outputs": [],
      "stateMutability": "nonpayable",
      "type": "function"
    }
  ],
  "bytecode": "0x60806040523480156200001157600080fd5b5060405162003ec738038062003ec78339818101604052810190620000379190620002e8565b818181600090816200004a9190620005b8565b5080600190816200005c9190620005b8565b5050506200007f620000736200008760201b60201c565b6200008f60201b60201c565b50506200069f565b600033905090565b6000600760009054906101000a900473ffffffffffffffffffffffffffffffffffffffff16905081600760006101000a81548173ffffffffffffffffffffffffffffffffffffffff021916908373ffffffffffffffffffffffffffffffffffffffff1602179055508173ffffffffffffffffffffffffffffffffffffffff168173ffffffffffffffffffffffffffffffffffffffff167f8be0079c531659141344cd1fd0a4f28419497f9722a3daafe3b4186f6b6457e060405160405180910390a35050565b6000604051905090565b600080fd5b600080fd5b600080fd5b600080fd5b6000601f19601f8301169050919050565b7f4e487b7100000000000000000000000000000000000000000000000000000000600052604160045260246000fd5b620001be8262000173565b810181811067ffffffffffffffff82111715620001e057620001df62000184565b5b80604052505050565b6000620001f562000155565b9050620002038282620001b3565b919050565b600067ffffffffffffffff82111562000226576200022562000184565b5b620002318262000173565b9050602081019050919050565b60005b838110156200025e57808201518184015260208101905062000241565b60008484015250505050565b6000620002816200027b8462000208565b620001e9565b905082815260208101848484011115620002a0576200029f6200016e565b5b620002ad8482856200023e565b509392505050565b600082601f830112620002cd57620002cc62000169565b5b8151620002df8482602086016200026a565b91505092915050565b600080604083850312156200030257620003016200015f565b5b600083015167ffffffffffffffff81111562000323576200032262000164565b5b6200033185828601620002b5565b925050602083015167ffffffffffffffff81111562000355576200035462000164565b5b6200036385828601620002b5565b9150509250929050565b600081519050919050565b7f4e487b7100000000000000000000000000000000000000000000000000000000600052602260045260246000fd5b60006002820490506001821680620003c057607f821691505b602082108103620003d657620003d562000378565b5b50919050565b60008190508160005260206000209050919050565b60006020601f8301049050919050565b600082821b905092915050565b600060088302620004407fffffffffffffffffffffffffffffffffffffffffffffffffffffffffffffffff8262000401565b6200044c868362000401565b95508019841693508086168417925050509392505050565b6000819050919050565b6000819050919050565b600062000499620004936200048d8462000464565b6200046e565b62000464565b9050919050565b6000819050919050565b620004b58362000478565b620004cd620004c482620004a0565b8484546200040e565b825550505050565b600090565b620004e4620004d5565b620004f1818484620004aa565b505050565b5b8181101562000519576200050d600082620004da565b600181019050620004f7565b5050565b601f82111562000568576200053281620003dc565b6200053d84620003f1565b810160208510156200054d578190505b620005656200055c85620003f1565b830182620004f6565b50505b505050565b600082821c905092915050565b60006200058d600019846008026200056d565b1980831691505092915050565b6000620005a883836200057a565b9150826002028217905092915050565b620005c3826200036d565b67ffffffffffffffff811115620005df57620005de62000184565b5b620005eb8254620003a7565b620005f88282856200051d565b600060209050601f8311600181146200063057600084156200061b578287015190505b6200062785826200059a565b86555062000697565b601f1984166200064086620003dc565b60005b828110156200066a5784890151825560018201915060208501945060208101905062000643565b868310156200068a578489015162000686601f8916826200057a565b8355505b6001600288020188555050505b505050505050565b61381880620006af6000396000f3fe608060405234801561001057600080fd5b506004361061014d5760003560e01c806368dea661116100c3578063b88d4fde1161007c578063b88d4fde1461039e578063c87b56dd146103ba578063d0a34450146103ea578063d53c2d6714610408578063e985e9c514610426578063f2fde38b146104565761014d565b806368dea661146102ee57806370a082311461030c578063715018a61461033c5780638da5cb5b1461034657806395d89b4114610364578063a22cb465146103825761014d565b806323b872dd1161011557806323b872dd1461020a578063411e0a101461022657806342842e0e146102565780635205f6af1461027257806354ba0f271461028e5780636352211e146102be5761014d565b806301ffc9a71461015257806306fdde0314610182578063081812fc146101a0578063095ea7b3146101d057806318160ddd146101ec575b600080fd5b61016c60048036038101906101679190612279565b610472565b60405161017991906122c1565b60405180910390f35b61018a610554565b604051610197919061236c565b60405180910390f35b6101ba60048036038101906101b591906123c4565b6105e6565b6040516101c79190612432565b60405180910390f35b6101ea60048036038101906101e59190612479565b61062c565b005b6101f4610743565b60405161020191906124c8565b60405180910390f35b610224600480360381019061021f91906124e3565b610768565b005b610240600480360381019061023b91906123c4565b6107c8565b60405161024d919061236c565b60405180910390f35b610270600480360381019061026b91906124e3565b610868565b005b61028c6004803603810190610287919061266b565b610888565b005b6102a860048036038101906102a391906126b4565b6108c7565b6040516102b591906124c8565b60405180910390f35b6102d860048036038101906102d391906123c4565b610954565b6040516102e59190612432565b60405180910390f35b6102f66109da565b60405161030391906124c8565b60405180910390f35b610326600480360381019061032191906126b4565b6109eb565b60405161033391906124c8565b60405180910390f35b610344610aa2565b005b61034e610ab6565b60405161035b9190612432565b60405180910390f35b61036c610ae0565b604051610379919061236c565b60405180910390f35b61039c6004803603810190610397919061270d565b610b72565b005b6103b860048036038101906103b391906127ee565b610b88565b005b6103d460048036038101906103cf91906123c4565b610bea565b6040516103e1919061236c565b60405180910390f35b6103f2610cfc565b6040516103ff919061297d565b60405180910390f35b610410610e42565b60405161041d91906124c8565b60405180910390f35b610440600480360381019061043b919061299f565b610e53565b60405161044d91906122c1565b60405180910390f35b610470600480360381019061046b91906126b4565b610ee7565b005b60007f80ac58cd000000000000000000000000000000000000000000000000000000007bffffffffffffffffffffffffffffffffffffffffffffffffffffffff1916827bffffffffffffffffffffffffffffffffffffffffffffffffffffffff1916148061053d57507f5b5e139f000000000000000000000000000000000000000000000000000000007bffffffffffffffffffffffffffffffffffffffffffffffffffffffff1916827bffffffffffffffffffffffffffffffffffffffffffffffffffffffff1916145b8061054d575061054c82610f6a565b5b9050919050565b60606000805461056390612a0e565b80601f016020809104026020016040519081016040528092919081815260200182805461058f90612a0e565b80156105dc5780601f106105b1576101008083540402835291602001916105dc565b820191906000526020600020905b8154815290600101906020018083116105bf57829003601f168201915b5050505050905090565b60006105f182610fd4565b6004600083815260200190815260200160002060009054906101000a900473ffffffffffffffffffffffffffffffffffffffff169050919050565b600061063782610954565b90508073ffffffffffffffffffffffffffffffffffffffff168373ffffffffffffffffffffffffffffffffffffffff16036106a7576040517f08c379a000000000000000000000000000000000000000000000000000000000815260040161069e90612ab1565b60405180910390fd5b8073ffffffffffffffffffffffffffffffffffffffff166106c661101f565b73ffffffffffffffffffffffffffffffffffffffff1614806106f557506106f4816106ef61101f565b610e53565b5b610734576040517f08c379a000000000000000000000000000000000000000000000000000000000815260040161072b90612b43565b60405180910390fd5b61073e8383611027565b505050565b600061074f60096110e0565b61075960086110e0565b6107639190612b92565b905090565b61077961077361101f565b826110ee565b6107b8576040517f08c379a00000000000000000000000000000000000000000000000000000000081526004016107af90612c38565b60405180910390fd5b6107c3838383611183565b505050565b600a60205280600052604060002060009150905080546107e790612a0e565b80601f016020809104026020016040519081016040528092919081815260200182805461081390612a0e565b80156108605780601f1061083557610100808354040283529160200191610860565b820191906000526020600020905b81548152906001019060200180831161084357829003601f168201915b505050505081565b61088383838360405180602001604052806000815250610b88565b505050565b61089061147c565b80600a600061089f60096110e0565b815260200190815260200160002090816108b99190612e04565b506108c460096114fa565b50565b6000806108d2610e42565b03610912576040517f08c379a000000000000000000000000000000000000000000000000000000000815260040161090990612f22565b60405180910390fd5b600061091c611510565b9050600061092a60086110e0565b90506109368482611648565b6109408183611865565b61094a60086114fa565b8092505050919050565b600080610960836118d2565b9050600073ffffffffffffffffffffffffffffffffffffffff168173ffffffffffffffffffffffffffffffffffffffff16036109d1576040517f08c379a00000000000000000000000000000000000000000000000000000000081526004016109c890612f8e565b60405180910390fd5b80915050919050565b60006109e660086110e0565b905090565b60008073ffffffffffffffffffffffffffffffffffffffff168273ffffffffffffffffffffffffffffffffffffffff1603610a5b576040517f08c379a0000000000000000000000000000000000000000000000000000000008152600401610a5290613020565b60405180910390fd5b600360008373ffffffffffffffffffffffffffffffffffffffff1673ffffffffffffffffffffffffffffffffffffffff168152602001908152602001600020549050919050565b610aaa61147c565b610ab4600061190f565b565b6000600760009054906101000a900473ffffffffffffffffffffffffffffffffffffffff16905090565b606060018054610aef90612a0e565b80601f0160208091040260200160405190810160405280929190818152602001828054610b1b90612a0e565b8015610b685780601f10610b3d57610100808354040283529160200191610b68565b820191906000526020600020905b815481529060010190602001808311610b4b57829003601f168201915b5050505050905090565b610b84610b7d61101f565b83836119d5565b5050565b610b99610b9361101f565b836110ee565b610bd8576040517f08c379a0000000000000000000000000000000000000000000000000000000008152600401610bcf90612c38565b60405180910390fd5b610be484848484611b41565b50505050565b6060610bf582610fd4565b6000600660008481526020019081526020016000208054610c1590612a0e565b80601f0160208091040260200160405190810160405280929190818152602001828054610c4190612a0e565b8015610c8e5780601f10610c6357610100808354040283529160200191610c8e565b820191906000526020600020905b815481529060010190602001808311610c7157829003601f168201915b505050505090506000610c9f611b9d565b90506000815103610cb4578192505050610cf7565b600082511115610ce9578082604051602001610cd192919061307c565b60405160208183030381529060405292505050610cf7565b610cf284611bb4565b925050505b919050565b60606000610d0a60096110e0565b67ffffffffffffffff811115610d2357610d22612540565b5b604051908082528060200260200182016040528015610d5657816020015b6060815260200190600190039081610d415790505b50905060005b610d6660096110e0565b811015610e3a57600a60008281526020019081526020016000208054610d8b90612a0e565b80601f0160208091040260200160405190810160405280929190818152602001828054610db790612a0e565b8015610e045780601f10610dd957610100808354040283529160200191610e04565b820191906000526020600020905b815481529060010190602001808311610de757829003601f168201915b5050505050828281518110610e1c57610e1b6130a0565b5b60200260200101819052508080610e32906130cf565b915050610d5c565b508091505090565b6000610e4e60096110e0565b905090565b6000600560008473ffffffffffffffffffffffffffffffffffffffff1673ffffffffffffffffffffffffffffffffffffffff16815260200190815260200160002060008373ffffffffffffffffffffffffffffffffffffffff1673ffffffffffffffffffffffffffffffffffffffff16815260200190815260200160002060009054906101000a900460ff16905092915050565b610eef61147c565b600073ffffffffffffffffffffffffffffffffffffffff168173ffffffffffffffffffffffffffffffffffffffff1603610f5e576040517f08c379a0000000000000000000000000000000000000000000000000000000008152600401610f5590613189565b60405180910390fd5b610f678161190f565b50565b60007f01ffc9a7000000000000000000000000000000000000000000000000000000007bffffffffffffffffffffffffffffffffffffffffffffffffffffffff1916827bffffffffffffffffffffffffffffffffffffffffffffffffffffffff1916149050919050565b610fdd81611c1c565b61101c576040517f08c379a000000000000000000000000000000000000000000000000000000000815260040161101390612f8e565b60405180910390fd5b50565b600033905090565b816004600083815260200190815260200160002060006101000a81548173ffffffffffffffffffffffffffffffffffffffff021916908373ffffffffffffffffffffffffffffffffffffffff160217905550808273ffffffffffffffffffffffffffffffffffffffff1661109a83610954565b73ffffffffffffffffffffffffffffffffffffffff167f8c5be1e5ebec7d5bd14f71427d1e84f3dd0314c0f7b2291e5b200ac8c7c3b92560405160405180910390a45050565b600081600001549050919050565b6000806110fa83610954565b90508073ffffffffffffffffffffffffffffffffffffffff168473ffffffffffffffffffffffffffffffffffffffff16148061113c575061113b8185610e53565b5b8061117a57508373ffffffffffffffffffffffffffffffffffffffff16611162846105e6565b73ffffffffffffffffffffffffffffffffffffffff16145b91505092915050565b8273ffffffffffffffffffffffffffffffffffffffff166111a382610954565b73ffffffffffffffffffffffffffffffffffffffff16146111f9576040517f08c379a00000000000000000000000000000000000000000000000000000000081526004016111f09061321b565b60405180910390fd5b600073ffffffffffffffffffffffffffffffffffffffff168273ffffffffffffffffffffffffffffffffffffffff1603611268576040517f08c379a000000000000000000000000000000000000000000000000000000000815260040161125f906132ad565b60405180910390fd5b6112758383836001611c5d565b8273ffffffffffffffffffffffffffffffffffffffff1661129582610954565b73ffffffffffffffffffffffffffffffffffffffff16146112eb576040517f08c379a00000000000000000000000000000000000000000000000000000000081526004016112e29061321b565b60405180910390fd5b6004600082815260200190815260200160002060006101000a81549073ffffffffffffffffffffffffffffffffffffffff02191690556001600360008573ffffffffffffffffffffffffffffffffffffffff1673ffffffffffffffffffffffffffffffffffffffff168152602001908152602001600020600082825403925050819055506001600360008473ffffffffffffffffffffffffffffffffffffffff1673ffffffffffffffffffffffffffffffffffffffff16815260200190815260200160002060008282540192505081905550816002600083815260200190815260200160002060006101000a81548173ffffffffffffffffffffffffffffffffffffffff021916908373ffffffffffffffffffffffffffffffffffffffff160217905550808273ffffffffffffffffffffffffffffffffffffffff168473ffffffffffffffffffffffffffffffffffffffff167fddf252ad1be2c89b69c2b068fc378daa952ba7f163c4a11628f55a4df523b3ef60405160405180910390a46114778383836001611d83565b505050565b61148461101f565b73ffffffffffffffffffffffffffffffffffffffff166114a2610ab6565b73ffffffffffffffffffffffffffffffffffffffff16146114f8576040517f08c379a00000000000000000000000000000000000000000000000000000000081526004016114ef90613319565b60405180910390fd5b565b6001816000016000828254019250508190555050565b6060600060405180602001604052806000815250905060004442611532610743565b6040516020016115449392919061335a565b6040516020818303038152906040528051906020012060001c9050600061156b60096110e0565b8261157691906133c6565b9050600a6000828152602001908152602001600020805461159690612a0e565b80601f01602080910402602001604051908101604052809291908181526020018280546115c290612a0e565b801561160f5780601f106115e45761010080835404028352916020019161160f565b820191906000526020600020905b8154815290600101906020018083116115f257829003601f168201915b50505050509250600a6000828152602001908152602001600020600061163591906121b0565b61163f6009611d89565b82935050505090565b600073ffffffffffffffffffffffffffffffffffffffff168273ffffffffffffffffffffffffffffffffffffffff16036116b7576040517f08c379a00000000000000000000000000000000000000000000000000000000081526004016116ae90613443565b60405180910390fd5b6116c081611c1c565b15611700576040517f08c379a00000000000000000000000000000000000000000000000000000000081526004016116f7906134af565b60405180910390fd5b61170e600083836001611c5d565b61171781611c1c565b15611757576040517f08c379a000000000000000000000000000000000000000000000000000000000815260040161174e906134af565b60405180910390fd5b6001600360008473ffffffffffffffffffffffffffffffffffffffff1673ffffffffffffffffffffffffffffffffffffffff16815260200190815260200160002060008282540192505081905550816002600083815260200190815260200160002060006101000a81548173ffffffffffffffffffffffffffffffffffffffff021916908373ffffffffffffffffffffffffffffffffffffffff160217905550808273ffffffffffffffffffffffffffffffffffffffff16600073ffffffffffffffffffffffffffffffffffffffff167fddf252ad1be2c89b69c2b068fc378daa952ba7f163c4a11628f55a4df523b3ef60405160405180910390a4611861600083836001611d83565b5050565b61186e82611c1c565b6118ad576040517f08c379a00000000000000000000000000000000000000000000000000000000081526004016118a490613541565b60405180910390fd5b806006600084815260200190815260200160002090816118cd9190612e04565b505050565b60006002600083815260200190815260200160002060009054906101000a900473ffffffffffffffffffffffffffffffffffffffff169050919050565b6000600760009054906101000a900473ffffffffffffffffffffffffffffffffffffffff16905081600760006101000a81548173ffffffffffffffffffffffffffffffffffffffff021916908373ffffffffffffffffffffffffffffffffffffffff1602179055508173ffffffffffffffffffffffffffffffffffffffff168173ffffffffffffffffffffffffffffffffffffffff167f8be0079c531659141344cd1fd0a4f28419497f9722a3daafe3b4186f6b6457e060405160405180910390a35050565b8173ffffffffffffffffffffffffffffffffffffffff168373ffffffffffffffffffffffffffffffffffffffff1603611a43576040517f08c379a0000000000000000000000000000000000000000000000000000000008152600401611a3a906135ad565b60405180910390fd5b80600560008573ffffffffffffffffffffffffffffffffffffffff1673ffffffffffffffffffffffffffffffffffffffff16815260200190815260200160002060008473ffffffffffffffffffffffffffffffffffffffff1673ffffffffffffffffffffffffffffffffffffffff16815260200190815260200160002060006101000a81548160ff0219169083151502179055508173ffffffffffffffffffffffffffffffffffffffff168373ffffffffffffffffffffffffffffffffffffffff167f17307eab39ab6107e8899845ad3d59bd9653f200f220920489ca2b5937696c3183604051611b3491906122c1565b60405180910390a3505050565b611b4c848484611183565b611b5884848484611de5565b611b97576040517f08c379a0000000000000000000000000000000000000000000000000000000008152600401611b8e9061363f565b60405180910390fd5b50505050565b606060405180602001604052806000815250905090565b6060611bbf82610fd4565b6000611bc9611b9d565b90506000815111611be95760405180602001604052806000815250611c14565b80611bf384611f6c565b604051602001611c0492919061307c565b6040516020818303038152906040525b915050919050565b60008073ffffffffffffffffffffffffffffffffffffffff16611c3e836118d2565b73ffffffffffffffffffffffffffffffffffffffff1614159050919050565b6001811115611d7d57600073ffffffffffffffffffffffffffffffffffffffff168473ffffffffffffffffffffffffffffffffffffffff1614611cf15780600360008673ffffffffffffffffffffffffffffffffffffffff1673ffffffffffffffffffffffffffffffffffffffff1681526020019081526020016000206000828254611ce9919061365f565b925050819055505b600073ffffffffffffffffffffffffffffffffffffffff168373ffffffffffffffffffffffffffffffffffffffff1614611d7c5780600360008573ffffffffffffffffffffffffffffffffffffffff1673ffffffffffffffffffffffffffffffffffffffff1681526020019081526020016000206000828254611d749190612b92565b925050819055505b5b50505050565b50505050565b60008160000154905060008111611dd5576040517f08c379a0000000000000000000000000000000000000000000000000000000008152600401611dcc906136df565b60405180910390fd5b6001810382600001819055505050565b6000611e068473ffffffffffffffffffffffffffffffffffffffff1661203a565b15611f5f578373ffffffffffffffffffffffffffffffffffffffff1663150b7a02611e2f61101f565b8786866040518563ffffffff1660e01b8152600401611e519493929190613754565b6020604051808303816000875af1925050508015611e8d57506040513d601f19601f82011682018060405250810190611e8a91906137b5565b60015b611f0f573d8060008114611ebd576040519150601f19603f3d011682016040523d82523d6000602084013e611ec2565b606091505b506000815103611f07576040517f08c379a0000000000000000000000000000000000000000000000000000000008152600401611efe9061363f565b60405180910390fd5b805181602001fd5b63150b7a0260e01b7bffffffffffffffffffffffffffffffffffffffffffffffffffffffff1916817bffffffffffffffffffffffffffffffffffffffffffffffffffffffff191614915050611f64565b600190505b949350505050565b606060006001611f7b8461205d565b01905060008167ffffffffffffffff811115611f9a57611f99612540565b5b6040519080825280601f01601f191660200182016040528015611fcc5781602001600182028036833780820191505090505b509050600082602001820190505b60011561202f578080600190039150507f3031323334353637383961626364656600000000000000000000000000000000600a86061a8153600a858161202357612022613397565b5b04945060008503611fda575b819350505050919050565b6000808273ffffffffffffffffffffffffffffffffffffffff163b119050919050565b600080600090507a184f03e93ff9f4daa797ed6e38ed64bf6a1f01000000000000000083106120bb577a184f03e93ff9f4daa797ed6e38ed64bf6a1f01000000000000000083816120b1576120b0613397565b5b0492506040810190505b6d04ee2d6d415b85acef810000000083106120f8576d04ee2d6d415b85acef810000000083816120ee576120ed613397565b5b0492506020810190505b662386f26fc10000831061212757662386f26fc10000838161211d5761211c613397565b5b0492506010810190505b6305f5e1008310612150576305f5e100838161214657612145613397565b5b0492506008810190505b612710831061217557612710838161216b5761216a613397565b5b0492506004810190505b60648310612198576064838161218e5761218d613397565b5b0492506002810190505b600a83106121a7576001810190505b80915050919050565b5080546121bc90612a0e565b6000825580601f106121ce57506121ed565b601f0160209004906000526020600020908101906121ec91906121f0565b5b50565b5b808211156122095760008160009055506001016121f1565b5090565b6000604051905090565b600080fd5b600080fd5b60007fffffffff0000000000000000000000000000000000000000000000000000000082169050919050565b61225681612221565b811461226157600080fd5b50565b6000813590506122738161224d565b92915050565b60006020828403121561228f5761228e612217565b5b600061229d84828501612264565b91505092915050565b60008115159050919050565b6122bb816122a6565b82525050565b60006020820190506122d660008301846122b2565b92915050565b600081519050919050565b600082825260208201905092915050565b60005b838110156123165780820151818401526020810190506122fb565b60008484015250505050565b6000601f19601f8301169050919050565b600061233e826122dc565b61234881856122e7565b93506123588185602086016122f8565b61236181612322565b840191505092915050565b600060208201905081810360008301526123868184612333565b905092915050565b6000819050919050565b6123a18161238e565b81146123ac57600080fd5b50565b6000813590506123be81612398565b92915050565b6000602082840312156123da576123d9612217565b5b60006123e8848285016123af565b91505092915050565b600073ffffffffffffffffffffffffffffffffffffffff82169050919050565b600061241c826123f1565b9050919050565b61242c81612411565b82525050565b60006020820190506124476000830184612423565b92915050565b61245681612411565b811461246157600080fd5b50565b6000813590506124738161244d565b92915050565b600080604083850312156124905761248f612217565b5b600061249e85828601612464565b92505060206124af858286016123af565b9150509250929050565b6124c28161238e565b82525050565b60006020820190506124dd60008301846124b9565b92915050565b6000806000606084860312156124fc576124fb612217565b5b600061250a86828701612464565b935050602061251b86828701612464565b925050604061252c868287016123af565b9150509250925092565b600080fd5b600080fd5b7f4e487b7100000000000000000000000000000000000000000000000000000000600052604160045260246000fd5b61257882612322565b810181811067ffffffffffffffff8211171561259757612596612540565b5b80604052505050565b60006125aa61220d565b90506125b6828261256f565b919050565b600067ffffffffffffffff8211156125d6576125d5612540565b5b6125df82612322565b9050602081019050919050565b82818337600083830152505050565b600061260e612609846125bb565b6125a0565b90508281526020810184848401111561262a5761262961253b565b5b6126358482856125ec565b509392505050565b600082601f83011261265257612651612536565b5b81356126628482602086016125fb565b91505092915050565b60006020828403121561268157612680612217565b5b600082013567ffffffffffffffff81111561269f5761269e61221c565b5b6126ab8482850161263d565b91505092915050565b6000602082840312156126ca576126c9612217565b5b60006126d884828501612464565b91505092915050565b6126ea816122a6565b81146126f557600080fd5b50565b600081359050612707816126e1565b92915050565b6000806040838503121561272457612723612217565b5b600061273285828601612464565b9250506020612743858286016126f8565b9150509250929050565b600067ffffffffffffffff82111561276857612767612540565b5b61277182612322565b9050602081019050919050565b600061279161278c8461274d565b6125a0565b9050828152602081018484840111156127ad576127ac61253b565b5b6127b88482856125ec565b509392505050565b600082601f8301126127d5576127d4612536565b5b81356127e584826020860161277e565b91505092915050565b6000806000806080858703121561280857612807612217565b5b600061281687828801612464565b945050602061282787828801612464565b9350506040612838878288016123af565b925050606085013567ffffffffffffffff8111156128595761285861221c565b5b612865878288016127c0565b91505092959194509250565b600081519050919050565b600082825260208201905092915050565b6000819050602082019050919050565b600082825260208201905092915050565b60006128b9826122dc565b6128c3818561289d565b93506128d38185602086016122f8565b6128dc81612322565b840191505092915050565b60006128f383836128ae565b905092915050565b6000602082019050919050565b600061291382612871565b61291d818561287c565b93508360208202850161292f8561288d565b8060005b8581101561296b578484038952815161294c85826128e7565b9450612957836128fb565b925060208a01995050600181019050612933565b50829750879550505050505092915050565b600060208201905081810360008301526129978184612908565b905092915050565b600080604083850312156129b6576129b5612217565b5b60006129c485828601612464565b92505060206129d585828601612464565b9150509250929050565b7f4e487b7100000000000000000000000000000000000000000000000000000000600052602260045260246000fd5b60006002820490506001821680612a2657607f821691505b602082108103612a3957612a386129df565b5b50919050565b7f4552433732313a20617070726f76616c20746f2063757272656e74206f776e6560008201527f7200000000000000000000000000000000000000000000000000000000000000602082015250565b6000612a9b6021836122e7565b9150612aa682612a3f565b604082019050919050565b60006020820190508181036000830152612aca81612a8e565b9050919050565b7f4552433732313a20617070726f76652063616c6c6572206973206e6f7420746f60008201527f6b656e206f776e6572206f7220617070726f76656420666f7220616c6c000000602082015250565b6000612b2d603d836122e7565b9150612b3882612ad1565b604082019050919050565b60006020820190508181036000830152612b5c81612b20565b9050919050565b7f4e487b7100000000000000000000000000000000000000000000000000000000600052601160045260246000fd5b6000612b9d8261238e565b9150612ba88361238e565b9250828201905080821115612bc057612bbf612b63565b5b92915050565b7f4552433732313a2063616c6c6572206973206e6f7420746f6b656e206f776e6560008201527f72206f7220617070726f76656400000000000000000000000000000000000000602082015250565b6000612c22602d836122e7565b9150612c2d82612bc6565b604082019050919050565b60006020820190508181036000830152612c5181612c15565b9050919050565b60008190508160005260206000209050919050565b60006020601f8301049050919050565b600082821b905092915050565b600060088302612cba7fffffffffffffffffffffffffffffffffffffffffffffffffffffffffffffffff82612c7d565b612cc48683612c7d565b95508019841693508086168417925050509392505050565b6000819050919050565b6000612d01612cfc612cf78461238e565b612cdc565b61238e565b9050919050565b6000819050919050565b612d1b83612ce6565b612d2f612d2782612d08565b848454612c8a565b825550505050565b600090565b612d44612d37565b612d4f818484612d12565b505050565b5b81811015612d7357612d68600082612d3c565b600181019050612d55565b5050565b601f821115612db857612d8981612c58565b612d9284612c6d565b81016020851015612da1578190505b612db5612dad85612c6d565b830182612d54565b50505b505050565b600082821c905092915050565b6000612ddb60001984600802612dbd565b1980831691505092915050565b6000612df48383612dca565b9150826002028217905092915050565b612e0d826122dc565b67ffffffffffffffff811115612e2657612e25612540565b5b612e308254612a0e565b612e3b828285612d77565b600060209050601f831160018114612e6e5760008415612e5c578287015190505b612e668582612de8565b865550612ece565b601f198416612e7c86612c58565b60005b82811015612ea457848901518255600182019150602085019450602081019050612e7f565b86831015612ec15784890151612ebd601f891682612dca565b8355505b6001600288020188555050505b505050505050565b7f6d696e746564206f757400000000000000000000000000000000000000000000600082015250565b6000612f0c600a836122e7565b9150612f1782612ed6565b602082019050919050565b60006020820190508181036000830152612f3b81612eff565b9050919050565b7f4552433732313a20696e76616c696420746f6b656e2049440000000000000000600082015250565b6000612f786018836122e7565b9150612f8382612f42565b602082019050919050565b60006020820190508181036000830152612fa781612f6b565b9050919050565b7f4552433732313a2061646472657373207a65726f206973206e6f74206120766160008201527f6c6964206f776e65720000000000000000000000000000000000000000000000602082015250565b600061300a6029836122e7565b915061301582612fae565b604082019050919050565b6000602082019050818103600083015261303981612ffd565b9050919050565b600081905092915050565b6000613056826122dc565b6130608185613040565b93506130708185602086016122f8565b80840191505092915050565b6000613088828561304b565b9150613094828461304b565b91508190509392505050565b7f4e487b7100000000000000000000000000000000000000000000000000000000600052603260045260246000fd5b60006130da8261238e565b91507fffffffffffffffffffffffffffffffffffffffffffffffffffffffffffffffff820361310c5761310b612b63565b5b600182019050919050565b7f4f776e61626c653a206e6577206f776e657220697320746865207a65726f206160008201527f6464726573730000000000000000000000000000000000000000000000000000602082015250565b60006131736026836122e7565b915061317e82613117565b604082019050919050565b600060208201905081810360008301526131a281613166565b9050919050565b7f4552433732313a207472616e736665722066726f6d20696e636f72726563742060008201527f6f776e6572000000000000000000000000000000000000000000000000000000602082015250565b60006132056025836122e7565b9150613210826131a9565b604082019050919050565b60006020820190508181036000830152613234816131f8565b9050919050565b7f4552433732313a207472616e7366657220746f20746865207a65726f2061646460008201527f7265737300000000000000000000000000000000000000000000000000000000602082015250565b60006132976024836122e7565b91506132a28261323b565b604082019050919050565b600060208201905081810360008301526132c68161328a565b9050919050565b7f4f776e61626c653a2063616c6c6572206973206e6f7420746865206f776e6572600082015250565b60006133036020836122e7565b915061330e826132cd565b602082019050919050565b60006020820190508181036000830152613332816132f6565b9050919050565b6000819050919050565b61335461334f8261238e565b613339565b82525050565b60006133668286613343565b6020820191506133768285613343565b6020820191506133868284613343565b602082019150819050949350505050565b7f4e487b7100000000000000000000000000000000000000000000000000000000600052601260045260246000fd5b60006133d18261238e565b91506133dc8361238e565b9250826133ec576133eb613397565b5b828206905092915050565b7f4552433732313a206d696e7420746f20746865207a65726f2061646472657373600082015250565b600061342d6020836122e7565b9150613438826133f7565b602082019050919050565b6000602082019050818103600083015261345c81613420565b9050919050565b7f4552433732313a20746f6b656e20616c7265616479206d696e74656400000000600082015250565b6000613499601c836122e7565b91506134a482613463565b602082019050919050565b600060208201905081810360008301526134c88161348c565b9050919050565b7f45524337323155524953746f726167653a2055524920736574206f66206e6f6e60008201527f6578697374656e7420746f6b656e000000000000000000000000000000000000602082015250565b600061352b602e836122e7565b9150613536826134cf565b604082019050919050565b6000602082019050818103600083015261355a8161351e565b9050919050565b7f4552433732313a20617070726f766520746f2063616c6c657200000000000000600082015250565b60006135976019836122e7565b91506135a282613561565b602082019050919050565b600060208201905081810360008301526135c68161358a565b9050919050565b7f4552433732313a207472616e7366657220746f206e6f6e20455243373231526560008201527f63656976657220696d706c656d656e7465720000000000000000000000000000602082015250565b60006136296032836122e7565b9150613634826135cd565b604082019050919050565b600060208201905081810360008301526136588161361c565b9050919050565b600061366a8261238e565b91506136758361238e565b925082820390508181111561368d5761368c612b63565b5b92915050565b7f436f756e7465723a2064656372656d656e74206f766572666c6f770000000000600082015250565b60006136c9601b836122e7565b91506136d482613693565b602082019050919050565b600060208201905081810360008301526136f8816136bc565b9050919050565b600081519050919050565b600082825260208201905092915050565b6000613726826136ff565b613730818561370a565b93506137408185602086016122f8565b61374981612322565b840191505092915050565b60006080820190506137696000830187612423565b6137766020830186612423565b61378360408301856124b9565b8181036060830152613795818461371b565b905095945050505050565b6000815190506137af8161224d565b92915050565b6000602082840312156137cb576137ca612217565b5b60006137d9848285016137a0565b9150509291505056fea26469706673582212202b8b3b79364932952a9e616f67e01d4db8d8b2d372bf5d4a308f11353cfb9a3464736f6c63430008110033",
  "linkReferences": {},
  "deployedLinkReferences": {}
}